:020000040800F2
:1000000038040020D9000008E1000008E3000008DF
:1000100000000000000000000000000000000000E0
:10002000000000000000000000000000E5000008E3
:100030000000000000000000E7000008110B0008AD
:10004000EB000008EB000008EB000008EB000008E4
:10005000EB000008EB000008EB000008EB000008D4
:10006000EB000008EB000008EB000008EB000008C4
:10007000EB000008EB000008EB000008EB000008B4
:10008000EB000008EB000008EB000008EB000008A4
:10009000EB000008EB000008EB000008EB00000894
:1000A000EB000008EB000008EB000008EB00000884
:1000B000EB000008EB000008EB000008EB00000874
:1000C0000448854600F064FA0048004725130008FC
:1000D000C046C04638040020044880470448004712
:1000E000FEE7FEE7FEE7FEE7FEE7FEE7210B00087E
:1000F000C100000830B50B46014600202022012433
:1001000009E00D46D5409D4205D31D469540491B4B
:100110002546954040191546521E002DF1DC30BD94
:10012000F0B507460846584087B0C00F0490480015
:100130000E46590040084908BC1A884105D2384685
:1001400031461E4617460B460246580040081043EB
:100150004DD0300D039040055900400D490D0590DC
:10016000401A0290402873DA18030121000B090598
:100170000843019004980092002806D01146019A85
:1001800049420020904100910190029840210A1AB2
:100190000199009800F07AF905460C466B4607CBAA
:1001A00000F084F9C0197141039A0E0D0023D7178E
:1001B00056401A467A40164344D0049A002A2DD05D
:1001C000029A012A039A15DC1205C01A91410126F0
:1001D0003605001C7141D20F059ED2070093019293
:1001E00002962A46234600F081F907B0F0BD384652
:1001F0003146FAE71605234A0F46B218C01AB7412E
:1002000001210905001C4F4100187F4111461818B3
:100210007941E20F10436D19644113E0E2076D0864
:1002200015436408C2071443039A01261205C01A35
:1002300091413605001C7141CE0740083043490802
:10024000C01851412A46234600F043F9CDE7FFE7A5
:10025000049801224000C117121A00238B41049810
:100260003146C417381AA141EEE730B40124E4073F
:10027000634030BC54E730B40124E407614030BC33
:100280004EE700000000E0FFF0B51FB488B00B9906
:100290000998002448400999C00F4900490809916C
:1002A000C0070B990090490049080B9109990898DB
:1002B000A64608431CD00B990A98084318D0099801
:1002C00001244000420D4800410D09982405000317
:1002D000000B204309900B980003000B20430B9068
:1002E00050181C494018002201901446104605E0A1
:1002F000002001460DB0F0BD032801DA034600E0FE
:1003000003239C46C11A0AAE0AE05F0008ADED5B0C
:100310004F00F75B7D430027AA187C41491C5B1EF8
:100320006145F2DD410004AB5A522104120C0A432C
:10033000240C401C0828DFDB0198029000997046CD
:1003400001910090059B049A0799069800F0CEF859
:10035000D0E700000DFCFFFFF0B50C465C4085B017
:10036000E40FE40703944C00002664085900944607
:10037000490802460296224321D062460A431ED013
:100380006200570D4A000E032303550D0124024657
:100390002C492405781B1B0B360B4018234326439E
:1003A000614600901C46501AB44103D30098401C8B
:1003B000009002E0921800985B41002803DA0020C8
:1003C000014605B0F0BD002001210905074686461B
:1003D00011E064461D46141BB54106D36546521B09
:1003E000B341744607430C43A646CD07400849086D
:1003F000284392185B4105460D43EAD11046184345
:1004000013D06046194650407140084306D06046FC
:10041000101AB34106D20122002306E00022012374
:10042000DB0702E00122D243531000987446010515
:10043000381C6141029C039D0019694100F049F894
:10044000BFE70000FD0300000EB505490291002141
:1004500000910A460B46019100F048F803B000BD38
:100460003304000010B5002904DB0124E4074042F6
:100470008C412146002B04DB1C460123DB07524242
:10048000A341994200D1904210BD000010B5202A2E
:1004900004DB0146203A9140002010BD914020230A
:1004A0009C1A0346E3401943904010BD10B5202A22
:1004B00006DBCB170846203A1041C1170B4306E074
:1004C0000B461341D0402024A21A914008431946FC
:1004D00010BD10B5002B08DA0024401C61419218B1
:1004E0005B411A4301D14008400010BDF0B51FB474
:1004F00082B005460C0003D0084600F01BFE02E067
:1005000000F018FE20300246009021462846FFF7F2
:10051000BDFF049B059A04460F4618431143084348
:1005200014D0184610431BD0009840210A1A1846D0
:10053000059900F03FF805460E46009A0599049883
:10054000FFF7A4FF084305D0012004E02046394608
:1005500007B0F0BD0020C11705430E432C433743BD
:1005600000990E986305401A7905E40A00220C43AD
:10057000FD0A0A3002D500200146E9E701051019FD
:1005800069410C9C0D9D00196941FFF7A2FFDFE74F
:10059000064C0125064E05E0E36807CC2B430C3CD6
:1005A00098471034B442F7D3FFF78EFDC8290008EE
:1005B000E829000810B5202A04DB0846203AD0407C
:1005C000002110BD0B46D340D0402024A21A9140F8
:1005D0000843194610BD002904D0826801231A433C
:1005E000826003E0826802231A4382607047000041
:1005F00010B50022C268084B1A400C7964030B68DE
:1006000023438C682343CC6823430C6923434C6900
:1006100023431A43C26010BD03D2FFFF10B586B05A
:1006200004460121480200F0F7F9002000906946D5
:10063000087102900390049005900648FFF7D8FFD8
:1006400001210448FFF7C7FF204600F005F806B077
:1006500010BD00000024014001461322132902DDD1
:100660000020C043704701208840024B9862002060
:10067000F8E7000000240140F0B50A4600210023FD
:10068000002400BF3DE001258D402B4615681D402C
:100690002C469C4234D11579012D02D01579022DBA
:1006A00016D185684F000326BE40B5438560557955
:1006B0004E00B540866835438560858801268E40AA
:1006C000B5438580858896798E40B6B2354385805E
:1006D00005684F000326BE40B543056015794E00FE
:1006E000B540066835430560C5684F000326BE4027
:1006F000B543C560D5794E00B540C6683543C56081
:10070000491C1029BFD3F0BD0449016000210171CB
:100710000121417100218171C1717047FFFF00000B
:10072000002A01D0816100E0018570471CB50121DC
:10073000880400F061F96846FFF7E6FF012168468A
:100740000171002181710348009069460248FFF75A
:1007500093FF1CBD0BF00000000400481CB50121F4
:10076000080500F049F90121480400F045F9684600
:10077000FFF7CAFF00206946087103200090054872
:10078000FFF77AFF0120009069460920C006FFF7B5
:1007900073FF1CBD000C00481CB50121C80400F00B
:1007A0002BF90B488069FF21C8310843084988614B
:1007B0006846FFF7A9FF0121684601710021817198
:1007C000FF20C830009069460148FFF755FF1CBD67
:1007D00000080048F0B59FB00021032080071C915D
:1007E0001D9061481A911B906049614818911990B9
:1007F0001AA80FC8FFF739FD044600225D4BFFF72A
:1008000043FD064600225B4BFFF7A6FD0F910E90BD
:10081000199B189AFFF784FC179116901AA80FC815
:10082000FFF723FD04460022534BFFF795FD15917A
:10083000149016A80FC8FFF718FD044600224E4B6F
:10084000FFF78AFD139112901E201190002685E07B
:100850003046FFF7F9FD0446139B129AFFF714FD8B
:100860000D910C90179B169AFFF705FD0F910E90B6
:10087000002770E03846FFF7E7FD05910490159BCF
:10088000149AFFF701FD079106901D9B1C9AFFF734
:1008900047FC0D910C900D9D0C9C0F990E980B919F
:1008A0000A90012009900020089045E022462B463E
:1008B00020462946FFF7E8FC079106900A9A104661
:1008C0000B9B1946FFF7E0FC05910490059B049AE9
:1008D00007990698FFF724FC0022284B0391029009
:1008E000FFF7C0FD02D20020099029E022462B46E6
:1008F000002001218907FFF7C7FC019100900B9BA5
:100900000A9AFFF7C1FC039102900F9B0E9AFFF722
:1009100007FC0B910A90059B049A07990698FFF72C
:10092000A4FC039102900D9B0C9AFFF7F9FB04467F
:100930000D460898401C0890119908988842B5D334
:1009400000BF0998002805D03A46963291B2B0B25D
:1009500000F00CFA7F1C962F8CD3761C962E00D2BA
:1009600076E71FB0F0BD00000000F03F33333333B3
:100970003333F3BF00C0624000A06240000010406B
:1009800010B5002819DA1A4A03071B0F083B9B0809
:100990009B00D2588307DC0EFF23A3409A438B07AA
:1009A0001B0E8407E40EA3401A43114B0407240FC7
:1009B000083CA408A4001A5118E00E4A03231B02A5
:1009C000D21883089B00D2588307DC0EFF23A34074
:1009D0009A438B071B0E8407E40EA3401A43054B72
:1009E000032424021B198408A4001A5110BD00001E
:1009F0001CED00E000E100E0002905D0054A526945
:100A00000243044B5A6104E0024A52698243014B9B
:100A10005A61704700100240002905D0054A9269CA
:100A20000243044B9A6104E0024A92698243014BFB
:100A30009A617047001002400CB5002001900090B0
:100A4000314800680121090408432F49086000BFAC
:100A50002D48006801214904084000900198401C7D
:100A600001900098002804D10521090301988842CB
:100A7000EED125480068012149040840002802D031
:100A80000120009001E0002000900098012839D159
:100A900011201E4908601C4840681B4948600846F0
:100AA00040684860084640687F21C903884316496A
:100AB000486008464068112109040843124948600B
:100AC000084600680121090608430F49086000BF75
:100AD0000D4800680121490608400028F8D00A485E
:100AE0004068800880000849486008464068022144
:100AF00008430549486000BF034840680C2108408E
:100B00000828F9D10CBD000000100240002002406E
:100B100002480068401C0149086070470800002036
:100B200010B51B48006801210843194908600846B0
:100B30004068184908401649486008460068164948
:100B40000840134908600846006801218904884369
:100B50000F490860084640683F21090488430C4952
:100B600048600846C06A00090001C8620846006B78
:100B7000FF2154318843064908630846406B40080A
:100B80004000486300208860FFF756FF10BD00005A
:100B9000001002400CB8FFF8FFFFF6FE10B50B483E
:100BA0000068401C09490860084609A20E21036834
:100BB000084800F0A3FA08A212210A2000F0F8F871
:100BC000044A12217A2000F0F3F810BD2000002022
:100BD0002564000024000020436E74200000000003
:100BE00010B503A22A210A2000F0E2F810BD00008F
:100BF0004B6579200000000010B503A242210A20B5
:100C000000F0D6F810BD00004C6564200000000024
:100C100010B504A28A210A2000F0CAF8FFF7DAFD15
:100C200010BD00004D616E427220000010B503A29D
:100C300072210A2000F0BCF810BD0000506F7469EA
:100C40002000000010B503A25A210A2000F0B0F8DD
:100C500010BD0000576174636820000010B5FF23C9
:100C60004133F0220021084600F036F90349088894
:100C70004B21890200F0F4F910BD000000000020B3
:100C8000F7B584B0164637484468002C02D10020DE
:100C900007B0F0BD6068B04204D8A1686068401831
:100CA000B04201D20020F3E72079301AC6B2208882
:100CB000C117490F0918C91003912088C117490F9E
:100CC0000918C910C900411A02D00398401C0390AA
:100CD0006088039948430290E168029870430F18B6
:100CE000638822880599049800F0F6F82C2000F01B
:100CF00091F9012040021C498861002001902AE0FE
:100D0000002520E02846E917490F0918C910C90035
:100D10006A1A012191403A781140002904D0114902
:100D2000488800F093F903E00E49088800F08EF936
:100D30006807400F072804D12088401EA84200DD24
:100D40007F1C681C85B22088A842DBDC7F1C0198D0
:100D5000401C80B20190618801988142D0DC012062
:100D600096E70000000000200010004870B504461F
:100D70000D46F02C16D2FF204130854212D20123BD
:100D80001A462946204600F0A7F82C2000F042F928
:100D900001204002044988610449488800F056F95E
:100DA000012070BD0020FCE700100048000000207A
:100DB000F8B505460F4614460D484068002801D096
:100DC000002C01D10020F8BD094846680BE02278CC
:100DD00039462846FFF754FF002800D1F3E7308852
:100DE000401985B2641C20780028F0D10120EAE780
:100DF0000000002010B500F02BF8032080021249FB
:100E00008861FF20013010492031088180000F499E
:100E10008861112000F0FEF8362000F0FBF8012078
:100E2000400209498861002000F000F93A2000F0F2
:100E3000F1F80120400204498861052000F0F6F82D
:100E4000292000F0E7F810BD001000480014004809
:100E50001CB501214805FFF7CFFD01218805FFF7EB
:100E6000CBFD6846FFF750FC012168460171002167
:100E7000817108480090032168464171694606481F
:100E8000FFF7FAFB01208002009069460348FFF754
:100E9000F3FB1CBDFF0F00000010004800140048C9
:100EA0000146002914D0C868002811D04888FF22C4
:100EB000413290420CD80888F02809D84888002888
:100EC00006D00888002803D00248416001207047FE
:100ED0000020FCE700000020FEB504460D46164643
:100EE0001F46002E00DD05E0FF229B322AA130A024
:100EF00000F037F9002F00DD05E0FF229C3226A12B
:100F00002EA000F02EF9A019F02800D805E0FF224D
:100F10009D3221A12CA000F024F9E819FF214131D4
:100F2000884200D805E0FF229E321BA12DA000F0D0
:100F300018F9A019401E80B20190E819401E80B235
:100F400000902A2000F066F8012040022C498861B8
:100F5000201200F06BF8E0B200F068F80199081276
:100F600000F064F80199C8B200F060F82B2000F09E
:100F700051F80120400222498861281200F056F8F9
:100F8000E8B200F053F80099081200F04FF8009909
:100F9000C8B200F04BF8FEBD7372635C4253505C04
:100FA000546674446973706C61792E6300000000AC
:100FB0007769647468203E203000000068656967C6
:100FC0006874203E203000002878202B2077696448
:100FD000746829203C3D205446545F574944544886
:100FE000000000002879202B206865696768742953
:100FF000203C3D205446545F484549474854000032
:101000000010004801460A46C843C1B20804104314
:101010007047000010B5044601204006024988616F
:10102000204600F003F810BD0010004810B504463B
:101030002046FFF7E7FF012189060843024988613E
:1010400001208002886110BD0010004810B50446E0
:101050002012FFF7EBFFE0B2FFF7E8FF10BD000042
:10106000F8B504460D462C20FFF7D4FF01204002BE
:10107000104988612012FFF7C5FF01218906084346
:101080000646E0B2FFF7BEFF012189060843074686
:101090000AE0084886610120800206498861084606
:1010A000876101208002886128466D1E0028F0D1EA
:1010B000F8BD00000010004810B57D21C9000C48A3
:1010C0000068FFF717F80446601E0A49884200D9F5
:1010D0000CE0601E084948610321081FFFF750FC1F
:1010E0000020054988610720086100BF10BD00008D
:1010F0000C000020FFFFFF0000E000E00FB47CB513
:101100000C0009AD01D0611E00E0002101910090AA
:10111000074B6A462946089800F050F8002C02D088
:10112000009A002111707CBC08BC04B01847000074
:101130000D1300082021020C01D010211046020AD4
:1011400001D010460839020901D01046091F820853
:1011500001D01046891E420801D0881E7047081A27
:101160007047A7B01346002816D0002914D00022DB
:1011700010E00478002C04D004786D46AC54401C78
:1011800006E00C78002C03D00C786D46AC54491C5A
:10119000541CE2B2962AECD3269300BFFEE702E08D
:1011A00008C8121F08C1002AFAD1704770470020F2
:1011B00001E001C1121F002AFBD17047FFB58DB0BD
:1011C0000446002506E025280AD0109A0F9990477A
:1011D000641C6D1C20780028F5D1284611B0F0BDA4
:1011E00000270121484A009700E00743641C237848
:1011F0000846203B98401042F7D120782E2817D17E
:10120000042007436078641C2A280CD10E98641CC3
:1012100002C800910E900BE000990A225143303928
:101220004018641C00902078014630390929F3D910
:1012300020780028D1D0642808D0692806D07528E5
:101240001ED0109A0F9990476D1C5BE00A200E99F2
:10125000019001C90E91002802DA40422D2102E0DE
:10126000390504D52B216A461172012103E0F907E3
:1012700004D02021F7E70BAE0B910DE00021FAE737
:101280000A200E99019001C90E91F7E70199FEF726
:1012900031FF3031761E31700028F7D103A8801B52
:1012A00020300190780701D5009801E001200090DE
:1012B0000199884201DD401A00E0002000270090DB
:1012C00006E002A8109AC05D0F9990476D1C7F1C24
:1012D0000B988742F5DB04E0109A30200F99904775
:1012E0006D1C0099481E00900029F5DC05E030785F
:1012F000109A761C0F9990476D1C0199481E019019
:101300000029F4DC641C65E7092801004A68002A0A
:1013100006D00A68531C0B6010704868401E486075
:1013200070470000FFF71AFAFFF736FAFFF762FD81
:101330001A48FFF7B5FDFFF791FC0E20FFF76EF995
:10134000FFF7BAFEFFF7F2F927E000F0A1F800F08E
:101350006DF8FFF723FC00F023F800F071F8FFF7B9
:101360003FFC00F027F800F075F8FFF745FC00F0AF
:101370002BF800F097F8FFF765FC00F04DF800F04F
:101380007DF8FFF753FC00F033F800F06DF8FFF73D
:101390003FFC00F023F800F035F8D6E7B829000844
:1013A00010B5002202210248FFF7BAF910BD000073
:1013B0000004004810B5002208210248FFF7B0F9E8
:1013C00010BD00000004004810B5002201210903EF
:1013D0000148FFF7A5F910BD0004004810B5002230
:1013E0000121C9030148FFF79BF910BD0004004823
:1013F00010B50022012189030148FFF791F910BDC2
:101400000004004810B5002201210248FFF788F9C6
:1014100010BD00000004004810B50022012149035E
:101420000148FFF77DF910BD0004004810B5012206
:1014300002210248FFF774F910BD000000040048C3
:1014400010B5012208210248FFF76AF910BD00001B
:101450000004004810B5012211030248FFF760F9AB
:1014600010BD00000004004810B50122D10302485D
:10147000FFF756F910BD00000004004810B5012226
:1014800091030248FFF74CF910BD0000000400482A
:1014900010B5012211460248FFF742F910BD0000C5
:1014A0000004004810B5012251030248FFF738F943
:1014B00010BD000000040048000000000000000013
:1014C000000000000000000000000000000000001C
:1014D000000000000000000000000000000000000C
:1014E0000000000000000000000080018001800179
:1014F00080018001800180018001800180018001E4
:1015000080018001000000008001800100000000D7
:10151000000000000000000000000000CC00CC0033
:10152000CC00CC00CC00CC0000000000000000008B
:1015300000000000000000000000000000000000AB
:10154000000000000000000000000000000000009B
:1015500000000000600C600C600C30063006FE1FBE
:10156000FE1F300638071803FE1FFE1F180318035E
:101570008C018C018C01000000008000E003F80F5A
:101580009C0E8C1C8C188C009800F801E007800ED3
:10159000801C8C188C189C18B80CF00FE00380008D
:1015A00080000000000000000000000000000E1895
:1015B0001B0C110C11061106110311039B018E0166
:1015C000C038C06C60446044304430441844186CE7
:1015D0000C380000000000000000E001F0033807B4
:1015E000180618063003F001F000F8009C310E33A5
:1015F000061E061C061C063FFC73F02100000000BE
:101600000000000000000000000000000C000C00C2
:101610000C000C000C000C0000000000000000009A
:1016200000000000000000000000000000000000BA
:101630000000000000000000000000020003800124
:10164000C000C0006000600030003000300030009A
:10165000300030003000300060006000C000C0008A
:101660008001000300020000000020006000C000B4
:10167000800180010003000300060006000600064A
:10168000000600060006000600030003800180013A
:10169000C00060002000000000000000000000000A
:1016A00000000000C000C000D806F807E0013003C9
:1016B00038070000000000000000000000000000EB
:1016C000000000000000000000000000000000001A
:1016D0000000000080018001800180018001FC3F4A
:1016E000FC3F80018001800180018001000000003A
:1016F00000000000000000000000000000000000EA
:1017000000000000000000000000000000000000D9
:1017100000000000000000000000800180010001C6
:101720000001800000000000000000000000000038
:1017300000000000000000000000000000000000A9
:10174000E007E007000000000000000000000000CB
:101750000000000000000000000000000000000089
:101760000000000000000000000000000000000079
:1017700000000000000000000000C000C0000000E9
:1017800000000000000000000000000C000C00063B
:1017900000060006000300030003800380018001AF
:1017A0008001C000C000C0006000600000000000B8
:1017B00000000000000000000000E003F007380E09
:1017C000180C0C180C180C180C180C180C180C18F9
:1017D0000C180C18180C380EF007E003000000007D
:1017E0000000000000000000000000018001C001B6
:1017F000F001980188018001800180018001800151
:1018000080018001800180018001800100000000D2
:1018100000000000000000000000E003F80F180CBA
:101820000C180C1800180018000C000600038001AA
:10183000C000600030001800FC1FFC1F000000000A
:1018400000000000000000000000E001F807180E92
:101850000C0C0C0C000C0006C003C007000C001898
:1018600000180C180C18180CF807E0030000000012
:1018700000000000000000000000000C000E000F3F
:10188000000F800DC00C600C600C300C180C0C0CA0
:10189000FC3FFC3F000C000C000C000C00000000A2
:1018A00000000000000000000000F80FF80F180012
:1018B00018000C00EC03FC071C0E001C001800189C
:1018C00000180C181C0C180EF807E00300000000AC
:1018D00000000000000000000000C007F00F381CEE
:1018E000181818000C00CC03EC0F3C0E1C1C0C1834
:1018F0000C180C18181C380EF007E003000000004C
:1019000000000000000000000000FC1FFC1F000C95
:1019100000060006000380038001C001C000E00053
:1019200060006000700030003000300000000000F7
:1019300000000000000000000000E003F007380E87
:10194000180C180C180C3806F007F007180C0C18B7
:101950000C180C180C18380CF80FE00300000000ED
:1019600000000000000000000000E003F007380E57
:101970001C0C0C180C180C181C1C381EF81BE01939
:101980000018000C000C1C0EF807F001000000000D
:101990000000000000000000000000000000000047
:1019A0000000000080018001000000000000000035
:1019B0000000000000000000800180010000000025
:1019C0000000000000000000000000000000000017
:1019D0000000000080018001000000000000000005
:1019E00000000000000000008001800100010001F3
:1019F0008000000000000000000000000000000067
:101A000000000000000000000010001C800FE00338
:101A1000F8001800F800E003800F001C0010000020
:101A200000000000000000000000000000000000B6
:101A30000000000000000000F81F0000000000008F
:101A4000F81F00000000000000000000000000007F
:101A50000000000000000000000000000000000086
:101A6000000000000000000008003800F001C0077E
:101A7000001F0018001FC007F00138000800000018
:101A800000000000000000000000E003F80F180C48
:101A90000C180C180018000C000600038001C00090
:101AA000C000C00000000000C000C0000000000036
:101AB000000000000000000000000000E00718180F
:101AC0000420C229224A1144094409440944092234
:101AD0001113E20C024004201818E0070000000077
:101AE0000000000000000000000080038003C0062A
:101AF000C006C006600C600C301830183018F83F73
:101B0000F83F1C700C600C6006C006C000000000AE
:101B100000000000000000000000FC03FC0F0C0CA3
:101B20000C180C180C180C0CFC07FC0F0C180C30C3
:101B30000C300C300C300C18FC1FFC0700000000AF
:101B400000000000000000000000C007F01F38384F
:101B50001C300C7006600600060006000600060039
:101B6000060006600C701C30F01FE007000000004B
:101B700000000000000000000000FE03FE0F060E43
:101B800006180618063006300630063006300630D5
:101B9000063006180618060EFE0FFE0300000000B1
:101BA00000000000000000000000FC3FFC3F0C00B3
:101BB0000C000C000C000C00FC1FFC1F0C000C00A7
:101BC0000C000C000C000C00FC3FFC3F000000006F
:101BD00000000000000000000000F83FF83F18007F
:101BE0001800180018001800F81FF81F1800180037
:101BF0001800180018001800180018000000000055
:101C000000000000000000000000E00FF83F3C78FA
:101C10000E6006E007C00300030003FE03FE03C0DE
:101C200007C006C00EC03CF0F83FE00F0000000007
:101C3000000000000000000000000C300C300C30F0
:101C40000C300C300C300C30FC3FFC3F0C300C30B6
:101C50000C300C300C300C300C300C30000000001C
:101C600000000000000000000000800180018001F1
:101C7000800180018001800180018001800180015C
:101C8000800180018001800180018001000000004E
:101C90000000000000000000000000060006000632
:101CA0000006000600060006000600060006000604
:101CB0000006180618063807F003E00100000000CF
:101CC0000000000000000000000006300618060CAE
:101CD000060606038601C60066007600DE008E0159
:101CE00006030606060C0618063006600000000013
:101CF000000000000000000000001800180018009C
:101D00001800180018001800180018001800180013
:101D10001800180018001800F81FF81F0000000035
:101D2000000000000000000000000EE01EF01EF0A9
:101D30001EF036D836D836D836D866CC66CC66CCC7
:101D4000C6C6C6C6C6C6C6C686C386C300000000D1
:101D5000000000000000000000000C301C303C308F
:101D60003C306C306C30CC30CC308C310C330C339C
:101D70000C360C360C3C0C3C0C380C3000000000CF
:101D800000000000000000000000E007F81F1C3801
:101D90000E70066003C003C003C003C003C003C0CD
:101DA00003C006600E701C38F81FE007000000003A
:101DB00000000000000000000000FC0FFC1F0C38B9
:101DC0000C300C300C300C300C18FC1FFC070C00D5
:101DD0000C000C000C000C000C000C0000000000BB
:101DE00000000000000000000000E007F81F1C38A1
:101DF0000E70066003E003C003C003C003C003C04D
:101E000007E006630E3F1C3CF83FE0F700C000000F
:101E100000000000000000000000FE0FFE1F06385A
:101E20000630063006300638FE1FFE07060306069B
:101E3000060C061806180630063006600000000082
:101E400000000000000000000000E003F80F1C0C80
:101E50000C180C180C001C00F803E00F001E0038D2
:101E6000063006300E301C1CF80FE00700000000A2
:101E700000000000000000000000FE7FFE7F8001E7
:101E8000800180018001800180018001800180014A
:101E9000800180018001800180018001000000003C
:101EA000000000000000000000000C300C300C307E
:101EB0000C300C300C300C300C300C300C300C3042
:101EC0000C300C300C301818F81FE0070000000030
:101ED0000000000000000000000003600630063033
:101EE00006300C180C180C18180C180C380E30068C
:101EF0003006700760036003C001C00100000000ED
:101F0000000000000000000000000360C361C36126
:101F1000C3616633663366336633663366336C1B80
:101F20006C1B6C1B2C1A3C1E380E380E0000000077
:101F3000000000000000000000000FE00C701830EE
:101F40003018700C600EC00780038003C003E006E9
:101F5000700C301C18180C300E6007E000000000F8
:101F60000000000000000000000003C006600C300C
:101F70001C383818300C6006E007C003800180016F
:101F8000800180018001800180018001000000004B
:101F900000000000000000000000FC7FFC7F0060EB
:101FA00000300018000C000600038001C000600033
:101FB000300018000C000600FE7FFE7F00000000CD
:101FC00000000000000000000000E003E0036000EB
:101FD0006000600060006000600060006000600001
:101FE00060006000600060006000600060006000F1
:101FF0006000E003E00300000000300030006000FB
:1020000060006000C000C000C000C001800180010D
:10201000800100030003000300060006000000002A
:1020200000000000000000000000E003E0030003E7
:102030000003000300030003000300030003000388
:102040000003000300030003000300030003000378
:102050000003E003E003000000000000C001C00135
:1020600060036003600330063006180C180C000093
:102070000000000000000000000000000000000060
:102080000000000000000000000000000000000050
:102090000000000000000000000000000000000040
:1020A00000000000000000000000FFFFFFFF000034
:1020B000000000000000000000000C000C000C00FC
:1020C0000C000C000C0000000000000000000000EC
:1020D0000000000000000000000000000000000000
:1020E00000000000000000000000000000000000F0
:1020F00000000000F003F8071C0C0C0C000FF00FA0
:10210000F80C0C0C0C0C1C0FF80FF0180000000061
:102110000000000000000000000018001800180077
:1021200018001800D803F80F380C181818181818C9
:10213000181818181818380CF80FD80300000000E9
:10214000000000000000000000000000000000008F
:1021500000000000C003F007300E180C1800180033
:1021600018001800180C300EF007C0030000000023
:102170000000000000000000000000180018001817
:1021800000180018C01BF01F301C18181818181859
:10219000181818181818301CF01FC01B0000000079
:1021A000000000000000000000000000000000002F
:1021B00000000000C003F00F300C1818F81FF81FC3
:1021C000180018003818301CF00FC007000000007D
:1021D00000000000000000000000800FC00FC000E1
:1021E000C000C000F007F007C000C000C000C00081
:1021F000C000C000C000C000C000C000000000005F
:1022000000000000000000000000000000000000CE
:1022100000000000E00DF80F180E0C0C0C0C0C0C5C
:102220000C0C0C0C0C0C180EF80FE00D000C0C0C28
:102230001C06F807F0010000000018001800180044
:1022400018001800D807F80F381C18181818181894
:10225000181818181818181818181818000000005E
:1022600000000000000000000000C000C0000000EE
:1022700000000000C000C000C000C000C000C000DE
:10228000C000C000C000C000C000C00000000000CE
:1022900000000000000000000000C000C0000000BE
:1022A00000000000C000C000C000C000C000C000AE
:1022B000C000C000C000C000C000C000C000C0001E
:1022C000C000F8007800000000000C000C000C00BA
:1022D0000C000C000C0C0C060C038C01CC006C00E8
:1022E000FC009C018C030C030C060C0C000000008D
:1022F00000000000000000000000C000C000C0009E
:10230000C000C000C000C000C000C000C000C000CD
:10231000C000C000C000C000C000C000000000003D
:1023200000000000000000000000000000000000AD
:10233000000000007C3CFF7EC7E383C183C183C1F2
:1023400083C183C183C183C183C183C100000000F5
:10235000000000000000000000000000000000007D
:10236000000000009807F80F381C181818181818E3
:10237000181818181818181818181818000000003D
:10238000000000000000000000000000000000004D
:1023900000000000C003F00F300C181818181818AF
:1023A000181818181818300CF00FC003000000009F
:1023B000000000000000000000000000000000001D
:1023C00000000000D803F80F380C18181818181857
:1023D000181818181818380CF80FD8031800180017
:1023E00018001800180000000000000000000000A5
:1023F00000000000C01BF01F301C18181818181817
:10240000181818181818301CF01FC01B00180018D6
:102410000018001800180000000000000000000074
:1024200000000000B007F003700030003000300002
:10243000300030003000300030003000000000007C
:10244000000000000000000000000000000000008C
:1024500000000000E003F003380E180C3800F00311
:10246000C007000C180C380EF007E0030000000055
:102470000000000000000000000000008000C0001C
:10248000C000C000F007F007C000C000C000C000DE
:10249000C000C000C000C000C007800700000000EE
:1024A000000000000000000000000000000000002C
:1024B00000000000181818181818181818181818FC
:1024C000181818181818381CF01FE0190000000020
:1024D00000000000000000000000000000000000FC
:1024E000000000000C18180C180C180C30063006F0
:1024F0003006600360036003C001C00100000000FB
:1025000000000000000000000000000000000000CB
:1025100000000000C141C141C36163636363636341
:102520003636363636361C1C1C1C1C1C00000000BF
:10253000000000000000000000000000000000009B
:10254000000000001C38381C300C6006C003C003BB
:10255000C003C0036006300C381C1C3800000000AB
:10256000000000000000000000000000000000006B
:10257000000000001830301830187018600C600C23
:10258000E00CC006C0068003800380038001800148
:10259000C001F0007000000000000000000000001A
:1025A00000000000FC1FFC1F000C0006000380015F
:1025B000C000600030001800FC1FFC1F000000007D
:1025C0000000000000000000000000038001C000C7
:1025D000C000C000C000C000C0006000600030004B
:1025E00060004000C000C000C000C000C000C000CB
:1025F00080010003000000000000800180018001D4
:1026000080018001800180018001800180018001C2
:1026100080018001800180018001800180018001B2
:10262000800180018001000000006000C000C00146
:102630008001800180018001800100030003000609
:102640000003000180018001800180018001800180
:10265000C00060000000000000000000000000005A
:102660000000000000000000F010F81F080F00003C
:10267000000000000000000000000000000000005A
:10268000000000000000000000000000000000004A
:10269000000000000000000000000000000000003A
:1026A000000000000000000000000000000000002A
:1026B000000000000000000000000000000000001A
:1026C0000000C003300C0810042004200240024027
:1026D000024002400240042004200810300CC003D5
:1026E00000000000000000000000000000000000EA
:1026F0000000C003F00FF81FFC3FFC3FFE7FFE7F91
:10270000FE7FFE7FFE7FFC3FFC3FF81FF00FC00303
:1027100000000000000000000000000000000000B9
:10272000000000000000E007F00F18181818181833
:10273000181818181818F00FE00700000000000023
:102740000000000000000000000000000000000089
:10275000000000000000E007F00FF81FF81FF81F4E
:10276000F81FF81FF81FF00FE0070000000000003E
:102770000000000000000000000000000000000059
:102780000000000000000000000000000000000049
:102790008001C0036006300C18181818F81FF81FC5
:1027A0000000000000000000000000000000000029
:1027B0000000000000000000000000000000000019
:1027C0008001C003E007F00FF81FF81FF81FF81F83
:1027D00000000000000000000000000000000000F9
:1027E000F81FF81F18181818300C6006C003800175
:1027F00000000000000000000000000000000000D9
:1028000000000000000000000000000000000000C8
:10281000F81FF81FF81FF81FF00FE007C003800132
:1028200000000000000000000000000000000000A8
:102830000000000000000000000000000000000098
:10284000000000000000E001F00198018C01860109
:1028500086018C019801F001E001000000000000F9
:102860000000000000000000000000000000000068
:10287000000000000000E001F001F801FC01FE0191
:10288000FE01FC01F801F001E00100000000000081
:102890000000000000000000000000000000000038
:1028A0000000000000008007800F801980318061E7
:1028B000806180318019800F8007000000000000D7
:1028C0000000000000000000000000000000000008
:1028D0000000000000008007800F801F803F807F85
:1028E000807F803F801F800F800700000000000075
:1028F00000000000000000000000C00120022002D3
:1029000040013006080808080808080808080808F0
:1029100008082002200220022002200220022002B9
:1029200020022002200200000000C001E003E003BA
:10293000C001F007D80DD80DD80DD80DD80DD80D81
:10294000D80D6003600360036003600360036003ED
:1029500060036003600300000000C0012002200249
:102960004001300608080808080804100220022068
:102970004001200220021004080808080410041076
:1029800004200440000000000000C001E003E00358
:10299000C001F007D80DD80DD80DCC19C631C261D1
:1029A000C001600360037006380C180C0C180C187A
:1029B0000C300C6000000000100018002000000027
:1029C00070000000B8140008E8290008000000208A
:1029D000240000009E1100080C2A0008240000209A
:1029E00014040000AE110008FFFF0000000000000A
:1029F00000000000006CDC0200000000000000008D
:0C2A0000010203040607080900000000A2
:04000005080000C12E
:00000001FF
